:100000000C9462000C948A000C948A000C948A0070
:100010000C948A000C948A000C948A000C948A0038
:100020000C948A000C948A000C948A000C948A0028
:100030000C948A000C948A000C948A000C948A0018
:100040000C94DA030C948A000C944A040C94240453
:100050000C948A000C948A000C948A000C948A00F8
:100060000C948A000C948A000000000023002600F3
:10007000290000000000240027002A0000000000E2
:10008000250028002B0004040404040404040202D4
:100090000202020203030303030301020408102007
:1000A0004080010204081020010204081020000012
:1000B0000008000201000003040700000000000027
:1000C0000000C10411241FBECFEFD8E0DEBFCDBFBA
:1000D00011E0A0E0B1E0E2E1F3E102C005900D9291
:1000E000AE34B107D9F722E0AEE4B1E001C01D9211
:1000F000A431B207E1F710E0C2E6D0E004C02197D6
:10010000FE010E947C09C136D107C9F70E940C0587
:100110000C9487090C94000090E0FC01E255FF4F1D
:100120003491FC01E656FF4F2491FC01EA57FF4F42
:10013000E491EE2309F43BC0332339F1333091F0DD
:1001400038F43130A9F0323001F584B58F7D12C01A
:10015000373091F03830A1F03430B9F4809180001C
:100160008F7D03C0809180008F77809380000DC0C9
:1001700084B58F7784BD09C08091B0008F7703C0AC
:100180008091B0008F7D8093B000F0E0EE0FFF1FF4
:10019000E458FF4FA591B4918FB7F894EC91611199
:1001A00003C020952E2301C02E2B2C938FBF0895C2
:1001B000CF93DF9390E0FC01E656FF4F2491FC01C2
:1001C000EA57FF4F8491882361F190E0880F991FCF
:1001D000FC01EE58FF4FC591D491FC01E458FF4F4C
:1001E000A591B491611109C09FB7F89488812095B9
:1001F00082238883EC912E230BC0623061F49FB779
:10020000F8943881822F809583238883EC912E2B5C
:100210002C939FBF06C08FB7F894E8812E2B2883BC
:100220008FBFDF91CF9108953FB7F89480915B0124
:1002300090915C01A0915D01B0915E0126B5A89BF3
:1002400005C02F3F19F00196A11DB11D3FBFBA2F68
:10025000A92F982F8827820F911DA11DB11DBC01C8
:10026000CD0142E0660F771F881F991F4A95D1F78D
:100270000895CF92DF92EF92FF920F931F93CF9347
:10028000DF936C017A018B01C0E0D0E0CE15DF0571
:1002900089F0D8016D918D01D601ED91FC9101900D
:1002A000F081E02DC6010995892B11F47E0102C071
:1002B0002196ECCFC701DF91CF911F910F91FF9055
:1002C000EF90DF90CF900895FC01538D448D252F42
:1002D00030E0842F90E0821B930B541710F0CF96E0
:1002E000089501970895FC01918D828D981761F012
:1002F000828DDF01A80FB11D5D968C91928D9F5F5D
:100300009F73928F90E008958FEF9FEF0895FC0107
:10031000918D828D981731F0828DE80FF11D858DBA
:1003200090E008958FEF9FEF0895FC01918D228D4D
:10033000892F90E0805C9F4F821B91098F739927D2
:1003400008958FE591E00E94950121E0892B09F441
:1003500020E0822F0895FC01848DDF01A80FB11DDC
:10036000A35ABF4F2C91848D90E001968F739927EB
:10037000848FA689B7892C93A089B1898C918064D8
:100380008C93938D848D981306C00288F389E02D99
:1003900080818F7D80830895EF92FF920F931F934A
:1003A000CF93DF93EC0181E0888F9B8D8C8D981328
:1003B00005C0E889F989808185FD24C0F62E0B8D62
:1003C00010E00F5F1F4F0F731127E02E8C8DE81286
:1003D0000CC00FB607FCFACFE889F989808185FF48
:1003E000F5CFCE010E94AB01F1CF8B8DFE01E80F5E
:1003F000F11DE35AFF4FF0820B8FEA89FB89808160
:10040000806207C0EE89FF896083E889F98980816D
:100410008064808381E090E0DF91CF911F910F9104
:10042000FF90EF900895CF93DF93EC01888D8823A0
:10043000C9F0EA89FB89808185FD05C0A889B98951
:100440008C9186FD0FC00FB607FCF5CF808185FF2C
:10045000F2CFA889B9898C9185FFEDCFCE010E949A
:10046000AB01E7CFDF91CF91089580E090E0892B39
:1004700029F00E94A10181110C9400000895CF93EE
:10048000DF93EC0160E08E810E948C0061E08E8140
:100490000E948C0060E08E810E948C008BE891E0CD
:1004A0000197F1F7DF91CF910895CF92DF92EF920C
:1004B000FF920F931F93CF93DF937C016C0187E032
:1004C000C80ED11CC0E0D0E0062F10E0B8010C2E01
:1004D00002C0759567950A94E2F76170F601819103
:1004E0006F010E948C002196C430D10579F7C701B5
:1004F000DF91CF911F910F91FF90EF90DF90CF9000
:100500000C943F02CF92DF92EF92FF920F931F93D2
:10051000CF93DF93EC01F62E642F8C810E948C0028
:100520008D818F3F19F060E00E948C008F850F2D28
:1005300010E084FF25C06E0187E0C80ED11CE12CBD
:10054000F12CB8010E2C02C0759567950A94E2F75C
:100550006170F60181916F010E948C00FFEFEF1A2C
:10056000FF0A88E0E816F10461F7CE01DF91CF9130
:100570001F910F91FF90EF90DF90CF900C943F026E
:10058000B80184E0759567958A95E1F7CE010E94E0
:1005900055026F2DCE01DF91CF911F910F91FF90EA
:1005A000EF90DF90CF900C94550241E00E948202C0
:1005B00081E090E0089540E00C948202EF92FF9277
:1005C0000F931F93CF93DF93EC01623018F08F8568
:1005D00088608F876B8B1C8A80E48D8B80E18E8B8B
:1005E00080E58F8B61E08C810E94D8008D818F3FE8
:1005F00019F061E00E94D80061E08E810E94D8006D
:100600007E0187E0E80EF11C00E010E08F8584FD9C
:1006100003C084E090E002C088E090E0081719076A
:100620004CF461E0F70181917F010E94D8000F5FD7
:100630001F4FECCF8BE39DE00197F1F760E08C81D9
:100640000E948C0060E08E810E948C008D818F3F23
:1006500019F060E00E948C006F8564FD1DC063E0AE
:10066000CE010E9455020BE416E4C8010197F1F790
:1006700063E0CE010E945502C8010197F1F763E0E3
:10068000CE010E94550283E592E00197F1F762E006
:10069000CE010E94550216C06062CE010E94DB02AC
:1006A0008BE496E40197F1F76F856062CE010E94BA
:1006B000DB0283E592E00197F1F76F856062CE017E
:1006C0000E94DB026F856062CE010E94DB0284E043
:1006D000888B6CE0CE010E94DB0261E0CE010E94BB
:1006E000DB028BE39FE10197F1F782E0898B66E003
:1006F000CE01DF91CF911F910F91FF90EF900C945D
:10070000DB02089580E090E00895009769F0FC0115
:1007100001900020E9F73197AF01481B590BBC014C
:100720008CEF91E00C94390180E090E008958F9275
:100730009F92AF92BF920F931F93CF93DF93CDB74A
:10074000DEB7A1970FB6F894DEBF0FBECDBF19A2DA
:10075000423008F44AE08E010F5D1F4F842E912C29
:10076000A12CB12CA50194010E945A09E62FB901D0
:10077000CA0101501109EA3014F4E05D01C0E95CDE
:10078000D801EC93232B242B252B61F7C8010E9461
:100790008503A1960FB6F894DEBF0FBECDBFDF91E3
:1007A000CF911F910F91BF90AF909F908F90089520
:1007B0000E9482091F920F920FB60F9211242F935D
:1007C0003F938F939F93AF93BF93809157019091E5
:1007D0005801A0915901B0915A013091560123E07E
:1007E000230F2D3720F40196A11DB11D05C026E869
:1007F000230F0296A11DB11D20935601809357012E
:1008000090935801A0935901B0935A0180915B01D4
:1008100090915C01A0915D01B0915E010196A11DD6
:10082000B11D80935B0190935C01A0935D01B09337
:100830005E01BF91AF919F918F913F912F910F904A
:100840000FBE0F901F9018951F920F920FB60F9228
:1008500011242F933F934F935F936F937F938F93C5
:100860009F93AF93BF93EF93FF938FE591E00E9427
:10087000AB01FF91EF91BF91AF919F918F917F91CC
:100880006F915F914F913F912F910F900FBE0F90FD
:100890001F9018951F920F920FB60F9211242F934D
:1008A0008F939F93EF93FF93E0916F01F09170010D
:1008B0008081E0917501F091760182FD12C09081F6
:1008C000809178018F5F8F7320917901821751F0A9
:1008D000E0917801F0E0E15AFE4F958F8093780126
:1008E00001C08081FF91EF919F918F912F910F9087
:1008F0000FBE0F901F901895CF92DF92EF92FF924C
:100900000F931F93E82FF92F05C0015011092109FA
:10091000310961F1908196239417B9F305C0015014
:1009200011092109310911F1908196239413F7CF10
:10093000C12CD12CE12CF12C0AC08FEFC81AD80A97
:10094000E80AF80A0C151D052E053F0579F080818F
:100950008623841791F36C2D7D2D8E2D9F2D1F9155
:100960000F91FF90EF90DF90CF90089560E070E0DE
:1009700080E090E01F910F91FF90EF90DF90CF907B
:100980000895EFE5F1E01382128288EE93E0A0E093
:10099000B0E084839583A683B78384E091E091835C
:1009A000808385EC90E09587848784EC90E097873E
:1009B000868780EC90E0918B808B81EC90E0938B2C
:1009C000828B82EC90E0958B848B86EC90E0978B09
:1009D000868B118E128E138E148EECEFF1E0138243
:1009E000128286E191E0918380838CE084838FEF93
:1009F00085838BE0868385E0878384E0808783E03E
:100A0000818782E08287138614861586168617866C
:100A100061E0CF010C94DE02789484B5826084BDDD
:100A200084B5816084BD85B5826085BD85B58160F2
:100A300085BD80916E00816080936E001092810070
:100A4000809181008260809381008091810081602B
:100A500080938100809180008160809380008091EC
:100A6000B10084608093B1008091B0008160809378
:100A7000B00080917A00846080937A0080917A003F
:100A8000826080937A0080917A00816080937A00FE
:100A900080917A00806880937A001092C100E09182
:100AA0006F01F091700182E08083E0916B01F09121
:100AB0006C011082E0916D01F0916E018FEC8083EA
:100AC00010927701E0917301F091740186E08083C8
:100AD000E0917101F0917201808180618083E091E9
:100AE0007101F0917201808188608083E0917101D1
:100AF000F0917201808180688083E0917101F091B2
:100B0000720180818F7D808361E089E00E94D8003E
:100B100060E087E00E94D80062E08CEF91E00E94E4
:100B2000DE02E1E080910F028111E0E0E195F0E06A
:100B3000E450FE4F648960688CEF91E00E94DB0214
:100B40008EE191E00E948503CBE3DFE127E3A22E53
:100B5000B12C33E2832E912C4DE8242E40E0342E2C
:100B600060E089E00E948C00CE010197F1F761E01E
:100B700089E00E948C00C5010197F1F760E089E0EF
:100B80000E948C00C4010197F1F7E1EAF0E0649162
:100B9000F1018491E82FF0E0EE0FFF1FE859FF4FBD
:100BA0008591949100E412E42FE030E0462F0E94FA
:100BB0007C04611571058105910549F0DC01CB01CB
:100BC0000196A11DB11DBC01CD019F7003C060E065
:100BD00070E0CB010E94310820E034E244E759E4A0
:100BE0000E94900720E030E041E655E40E94900723
:100BF0006093520170935301809354019093550177
:100C000020E030E24EE354E40E94E80820E030E0C7
:100C100040E05FE30E94E80820E030E847E757E45F
:100C20000E94E80860934E0170934F018093500139
:100C300090935101E0910F02E23010F4E15001C0B5
:100C4000E1E0F0E0E450FE4F64896F5F60688CEF94
:100C500091E00E94DB0288E291E00E948503E0912E
:100C60000F02E23010F4E15001C0E1E0F0E0E450A6
:100C7000FE4F648960688CEF91E00E94DB02C090B7
:100C80004E01D0904F01E0905001F0905101A7012A
:100C90009601C701B6010E945509882319F089E31E
:100CA00091E01AC026013701E89477F82FEF3FEF63
:100CB0004FE75FE7C301B2010E94550981110FC0E0
:100CC0002FEF3FEF4FE75FE7C301B2010E948B07B1
:100CD00018162CF48DE391E00E94850382C02FEF5B
:100CE0003FEF4FE75FE4C701B6010E94E308181623
:100CF0001CF481E491E0F0CF2FEF3FEF4FE75FEC82
:100D0000C701B6010E948B0787FDF3CF20E030E0DA
:100D1000A901C701B6010E948B0787FF0FC0E091B0
:100D2000FC01F091FD010190F081E02D6DE28CEF6E
:100D300091E00995F7FAF094F7F8F0942AE037ED8E
:100D400043EA5BE3C701B6010E941F072B013C0188
:100D50000E9402086B017C010E9431089B01AC01DA
:100D6000C301B2010E941E072B013C014AE0C701EA
:100D7000B6010E949703E091FC01F091FD01019002
:100D8000F081E02D6EE28CEF91E0099520E030E0FB
:100D900040E251E4C301B2010E94E8086B017C010A
:100DA0000E9402082B01612C712C4AE0C301B201A0
:100DB0000E949703C301B2010E9431089B01AC015C
:100DC000C701B6010E941E0720E030E040E251E476
:100DD0000E94E8080E94020880E090E04AE00E9439
:100DE000970385E491E00E9485030E9414012B0182
:100DF0003C018AEFC82ED12CE12CF12C0E94140169
:100E0000DC01CB0184199509A609B709883E9340F6
:100E1000A105B10558F0F1E0CF1AD108E108F108B9
:100E200028EE420E23E0521E611C711CC114D10435
:100E3000E104F10419F70E94350292CE5058BB2705
:100E4000AA270E9436070C94A9080E949B0838F034
:100E50000E94A20820F039F49F3F19F426F40C9464
:100E600098080EF4E095E7FB0C949208E92F0E9495
:100E7000BA0858F3BA17620773078407950720F07A
:100E800079F4A6F50C94DC080EF4E0950B2EBA2F3D
:100E9000A02D0B01B90190010C01CA01A001112480
:100EA000FF27591B99F0593F50F4503E68F11A162C
:100EB000F040A22F232F342F4427585FF3CF4695BD
:100EC00037952795A795F0405395C9F77EF41F16DF
:100ED000BA0B620B730B840BBAF09150A1F0FF0FA9
:100EE000BB1F661F771F881FC2F70EC0BA0F621F95
:100EF000731F841F48F4879577956795B795F79585
:100F00009E3F08F0B0CF9395880F08F09927EE0F19
:100F10009795879508950E946E0808F481E00895DA
:100F20000E94A4070C94A9080E94A20858F00E94ED
:100F30009B0840F029F45F3F29F00C94920851116E
:100F40000C94DD080C9498080E94BA0868F3992361
:100F5000B1F3552391F3951B550BBB27AA276217B5
:100F60007307840738F09F5F5F4F220F331F441FC2
:100F7000AA1FA9F335D00E2E3AF0E0E832D09150F6
:100F80005040E695001CCAF72BD0FE2F29D0660FE3
:100F9000771F881FBB1F261737074807AB07B0E826
:100FA00009F0BB0B802DBF01FF2793585F4F3AF02C
:100FB0009E3F510578F00C9492080C94DD085F3F39
:100FC000E4F3983ED4F3869577956795B795F795B2
:100FD0009F5FC9F7880F911D9695879597F908959A
:100FE000E1E0660F771F881FBB1F62177307840736
:100FF000BA0720F0621B730B840BBA0BEE1F88F745
:10100000E09508950E94C20888F09F5798F0B92F84
:101010009927B751B0F0E1F0660F771F881F991F2D
:101020001AF0BA95C9F714C0B13091F00E94DC08EB
:10103000B1E008950C94DC08672F782F8827B85FFB
:1010400039F0B93FCCF3869577956795B395D9F785
:101050003EF490958095709561957F4F8F4F9F4F8F
:101060000895E89409C097FB3EF49095809570959B
:1010700061957F4F8F4F9F4F9923A9F0F92F96E9E4
:10108000BB279395F695879577956795B795F11159
:10109000F8CFFAF4BB0F11F460FF1BC06F5F7F4FF6
:1010A0008F4F9F4F16C0882311F096E911C0772308
:1010B00021F09EE8872F762F05C0662371F096E811
:1010C000862F70E060E02AF09A95660F771F881FE0
:1010D000DAF7880F9695879597F90895990F000884
:1010E000550FAA0BE0E8FEEF16161706E807F907FA
:1010F000C0F012161306E407F50798F0621B730B95
:10110000840B950B39F40A2661F0232B242B252B15
:1011100021F408950A2609F4A140A6958FEF811DB8
:10112000811D089597F99F6780E870E060E0089559
:101130009FEF80EC089500240A94161617061806EF
:101140000906089500240A941216130614060506CB
:101150000895092E0394000C11F4882352F0BB0F5C
:1011600040F4BF2B11F460FF04C06F5F7F4F8F4FBF
:101170009F4F089557FD9058440F551F59F05F3FFA
:1011800071F04795880F97FB991F61F09F3F79F0A9
:1011900087950895121613061406551FF2CF46952B
:1011A000F1DF08C0161617061806991FF1CF8695AD
:1011B0007105610508940895E894BB276627772791
:1011C000CB0197F908950E946E0808F48FEF0895F7
:1011D0000E94FB080C94A9080E949B0838F00E940A
:1011E000A20820F0952311F00C9492080C94980812
:1011F00011240C94DD080E94BA0870F3959FC1F386
:10120000950F50E0551F629FF001729FBB27F00DB4
:10121000B11D639FAA27F00DB11DAA1F649F662709
:10122000B00DA11D661F829F2227B00DA11D621F58
:10123000739FB00DA11D621F839FA00D611D221F12
:10124000749F3327A00D611D231F849F600D211DF6
:10125000822F762F6A2F11249F5750409AF0F1F079
:1012600088234AF0EE0FFF1FBB1F661F771F881FE2
:1012700091505040A9F79E3F510580F00C94920880
:101280000C94DD085F3FE4F3983ED4F386957795A0
:101290006795B795F795E7959F5FC1F7FE2B880F88
:1012A000911D9695879597F908950E946E08880B71
:1012B000990B0895A1E21A2EAA1BBB1BFD010DC0BC
:1012C000AA1FBB1FEE1FFF1FA217B307E407F507F6
:1012D00020F0A21BB30BE40BF50B661F771F881FD2
:1012E000991F1A9469F760957095809590959B0168
:1012F000AC01BD01CF010895EE0FFF1F0590F491E1
:10130000E02D099481E090E0F8940C948709F8941A
:02131000FFCF0D
:1013120000000000CC013901640113029501730140
:10132200870100000000D50239018203810344696C
:101332007374616E63653A002020202020202020F3
:101342002020202020202020006E616E00696E6621
:0E135200006F76660020696E63686573200088
:00000001FF
